:100000000C9465000C948D000C948D000C940F04DE
:100010000C9439040C9463040C948D000C948D00A2
:100020000C948D000C948D000C948D000C948D001C
:100030000C948D000C94E3020C948D000C948D00B4
:100040000C944D0E0C948D000C947F080C94CD08EC
:100050000C948D000C948D000C948D000C948D00EC
:100060000C94AA000C948D000000000024002700CE
:100070002A0000000000250028002B0000000000DE
:1000800023002600290004040404040404040202DA
:100090000202020203030303030301020408102007
:1000A0004080010204081020010204081020000012
:1000B0000007000201000003040600000000000029
:1000C00000006B02D6043B0ACF0411241FBECFEF01
:1000D000D8E0DEBFCDBF11E0A0E0B1E0E4E2F6E29F
:1000E00002C005900D92AA36B107D9F713E0AAE62F
:1000F000B1E001C01D92A338B107E1F710E0C8ECF0
:10010000D0E004C02297FE010E940113C23CD10737
:10011000C9F70E94A30D0C9405130C940000482FFE
:10012000613210F081E0089580916A01843011F00D
:1001300082E008956093B501A4E9B1E0842F9C01A9
:10014000F90102C081918D938E2F841B8617D0F305
:1001500080E008951F920F920FB60F9211242F93F3
:100160003F934F935F936F937F938F939F93AF933F
:10017000BF93EF93FF938091B90090E0887F9070D8
:100180008036910509F4F2C081369105CCF58832AC
:10019000910509F47BC089329105B4F48031910551
:1001A00009F46FC0813191053CF4009709F447C10F
:1001B000089709F04FC165C08831910509F466C000
:1001C000809709F047C182C08034910509F4A4C02A
:1001D0008134910544F48033910509F482C0C897B5
:1001E00009F038C189C08035910509F489C0883586
:1001F000910509F496C08834910509F02BC1AEC071
:100200008839910509F413C189399105ECF48837CF
:10021000910509F4ABC0893791054CF488369105F6
:1002200009F4A4C08037910509F014C19FC0883833
:10023000910509F4FCC08039910509F49DC080380E
:10024000910509F007C198C0803B910509F4C6C02B
:10025000813B91054CF4803A910509F49FC0883A9E
:10026000910509F0F7C0BAC0803C910509F4E3C0DC
:10027000883C910509F4DFC0883B910509F0EAC08C
:10028000C2C080916B018093BB00CFC0909192015E
:1002900080919301981768F490919201E92FF0E012
:1002A000EE58FE4F80818093BB009F5F9093920138
:1002B000BCC080916C01882309F44BC085ED80930C
:1002C000BC008091BC0084FDFCCFC2C080E2809362
:1002D000D70185ED8093BC008091BC0084FDFCCFEC
:1002E000B7C080E38093D70185ED8093BC008091F7
:1002F000BC0084FDFCCFACC088E38093D7019BC0D9
:10030000809192019091BB00E82FF0E0EE58FE4FF3
:1003100090838F5F809392019091920180919301DD
:1003200082C0809192019091BB00E82FF0E0EE58DE
:10033000FE4F90838F5F8093920180916C018823A0
:1003400041F085ED8093BC008091BC0084FDFCCF22
:100350007FC081E080936D0184EA6EC085ED80935B
:10036000BC008091BC0084FDFCCF72C083E0809310
:100370006A011092D60159C08091D601803208F0EE
:1003800056C08091D6019091BB00E82FF0E0EA546E
:10039000FE4F90838F5F8093D60147C08091D60136
:1003A000803230F4E091D601F0E0EA54FE4F108242
:1003B00085ED8093BC008091BC0084FDFCCF109241
:1003C0006A016091D601E0917001F091710186EBB4
:1003D00091E070E009951092D6012DC084E08093E1
:1003E0006A011092B4011092B501E0916E01F09192
:1003F0006F0109958091B501882329F481E08093EC
:10040000B501109294019091B401E92FF0E0EC56FF
:10041000FE4F80818093BB009F5F9093B4019091C9
:10042000B4018091B501981710F485EC01C085E8FE
:100430008093BC000FC085EC8093BC0009C0109273
:10044000D70185ED8093BC008091BC0084FDFCCF7A
:1004500010926A01FF91EF91BF91AF919F918F919F
:100460007F916F915F914F913F912F910F900FBEB0
:100470000F901F9018952091F90130E08091F801BC
:10048000281B3109C90108954091F8018091F901B3
:10049000481718F02FEF3FEF0AC0E42FF0E0E852C2
:1004A000FE4F8081282F30E04F5F4093F801C90153
:1004B0000895E091F8018091F901E81718F0EFEF45
:1004C000FFEF06C0F0E0E852FE4F8081E82FF0E039
:1004D000CF01089508951092200210921F0288EE15
:1004E00093E0A0E0B0E08093210290932202A093D9
:1004F0002302B09324028EE391E090931E02809336
:100500001D020895CF92DF92EF92FF920F931F93F7
:10051000CF93DF937C016B018A0180911C028823B9
:10052000A1F0C0E0D0E00DC0D701ED91FC91D60163
:10053000AC0FBD1F0190F081E02DC7016C910995B2
:100540002196C017D10780F304C0CB01642F0E940D
:100550008F00C801DF91CF911F910F91FF90EF9015
:10056000DF90CF900895DF93CF930F92CDB7DEB792
:10057000FC01698380911C028823C9F080911B02D1
:10058000803238F081E090E09383828320E030E095
:1005900015C080911A02E82FF0E0E650FE4F9981D5
:1005A00090838F5F80931A0280931B0205C0CE0157
:1005B000019661E00E948F0021E030E0C9010F90B8
:1005C000CF91DF9108951F920F920FB60F921124D1
:1005D0002F933F934F935F936F937F938F939F934B
:1005E000AF93BF93EF93FF93E0912D02F0912E0212
:1005F0000995FF91EF91BF91AF919F918F917F915D
:100600006F915F914F913F912F910F900FBE0F907F
:100610001F901895FC01A3E0440F551F661F771F1C
:10062000AA95D1F7403080E0580781E0680780E064
:10063000780714F481E010C033E0759567955795FD
:1006400047953A95D1F7403080E0580781E0680738
:1006500080E078071CF482E0828339C023E075953E
:100660006795579547952A95D1F7403080E0580710
:1006700081E0680780E0780714F483E0EDCF92E032
:1006800075956795579547959A95D1F7403080E0D5
:10069000580781E0680780E0780714F484E0DCCF35
:1006A00082E075956795579547958A95D1F74030C3
:1006B00080E0580781E0680780E0780714F485E05F
:1006C000CBCF85E082834FEF5FEF60E070E08FB7C4
:1006D0008383F8945183408350938700409386002E
:1006E00083818FBF80918100887F8093810080917A
:1006F00081009281892B809381000895109280005F
:1007000020E1209381000E940A0308950F931F9314
:10071000CF93DF93EC018B01121613061406150616
:1007200024F4BA01A9010E940A031D830C8381E00D
:1007300080936F00809181009A81892B8093810042
:10074000DF91CF911F910F9108950F931F93CF9336
:10075000DF93FC01738D76957170A685B7859585BD
:10076000772329F08C91892309F454C004C08C911B
:10077000892309F04FC08389948920E001972FEFE6
:100780008F3F9207D9F7C589D689A685B785158584
:1007900060E031E040E050E000E0CE01202F019722
:1007A0002FEF8F3F9207D9F78C91812311F0632BA4
:1007B00003C0832F80956823330F4F5F5F4F48300E
:1007C000510559F78789908D20E001972FEF8F3FD2
:1007D0009207D9F771116095809171022091720290
:1007E00090E001968F73907030E08217930779F054
:1007F000E0917102F0E0EF5CFD4F60838091710247
:1008000090E001968F7390708093710203C0838D86
:100810008160838FDF91CF911F910F9108951F9277
:100820000F920FB60F9211242F933F934F935F9324
:100830006F937F938F939F93AF93BF93EF93FF93A8
:1008400080912F0290913002009711F00E94A50331
:10085000FF91EF91BF91AF919F918F917F916F9198
:100860005F914F913F912F910F900FBE0F901F906E
:1008700018951F920F920FB60F9211242F933F934A
:100880004F935F936F937F938F939F93AF93BF9398
:10089000EF93FF9380912F0290913002009711F017
:1008A0000E94A503FF91EF91BF91AF919F918F910E
:1008B0007F916F915F914F913F912F910F900FBE5C
:1008C0000F901F9018951F920F920FB60F92112440
:1008D0002F933F934F935F936F937F938F939F9348
:1008E000AF93BF93EF93FF9380912F0290913002CB
:1008F000009711F00E94A503FF91EF91BF91AF9176
:100900009F918F917F916F915F914F913F912F9127
:100910000F900FBE0F901F9018950F938130910587
:1009200039F56F5F7F4FC9F583E792E00E946B0551
:100930008CE792E06CE271E04AE250E024E630E0BD
:100940000E94B2068FE992E060E370E023EC35EF9D
:1009500048EC50E40E94B2058FEB92E06CE772E045
:100960004FE952E024E630E000E00E94410815C063
:10097000892B99F46F5F7F4F81F48FEB92E00E9497
:10098000AA078FE992E00E94D3058CE792E00E94CB
:100990009E0683E792E00E947B050F91089580E018
:1009A00090E06FEF7FEF0E948D04089581E090E06A
:1009B0006FEF7FEF0E948D0408958FEB92E00E940D
:1009C000AB070895EF92FF920F931F9383E792E096
:1009D0000E949F058FEBE82E82E0F82E4091740272
:1009E000509175026091760270917702C7010E9462
:1009F000DF0706E513E0C80160E071E00E94AA0B82
:100A0000C7010E94BB07AB01BC01C80122E030E076
:100A10000E94910CC8016BE071E00E94AA0BC70113
:100A20000E942708AB01BC01C80122E030E00E940F
:100A3000910C64EF71E080E090E00E940E0F1F9136
:100A40000F91FF90EF900895CF92DF92EF92FF9277
:100A50000F931F9309E212E0C8014AE050E060E002
:100A600070E00E947E03C8016DED74E024E630E082
:100A700040E050E00E94860383E792E060E875E280
:100A80000E948D05FCE7CF2EF2E0DF2EC60162E06A
:100A900070E043E050E024E030E005E010E0E6E004
:100AA000EE2EF12C0E943407C6010E94A406C60156
:100AB00040E050E060E070E00E94050786E593E0CA
:100AC00066E171E00E94A40C1F910F91FF90EF90DE
:100AD000DF90CF900895FC0185E5808380E090E071
:100AE000A0E0B0E081839283A383B483858396835F
:100AF000A783B087089508950F931F938C0186E50F
:100B000093E00E949F0D9B01AC01F8012183328389
:100B1000438354831F910F9108950F931F93AB014B
:100B200006E513E0662757FD6095762FC8010E9401
:100B30000809C8010E94390A1F910F910895CF93A7
:100B4000DF93EC0186E593E00E948F0918161906E1
:100B500014F080E004C0CE010E947C0581E0DF91AA
:100B6000CF910895FC018EE491E091838083718799
:100B7000608726873787408B518B168A178A108E9D
:100B8000118E1286138614861586138E128A138A86
:100B9000148A158A80E090E0A0E0B0E0848F958F01
:100BA000A68FB78F0895FC018EE491E09183808336
:100BB0000895FC012685378540895189B901CA010C
:100BC0000895FC0162857385848595850895FC01EF
:100BD0008085918508958F929F92AF92BF92CF9218
:100BE000DF92EF92FF920F931F93CF93DF93EC016D
:100BF0008A810E9409104C010E94A30E5B016C01C6
:100C00006E897F89888D998D6A157B058C059D0578
:100C100038F486017501E61AF70A080B190B0AC0A9
:100C20007B018C01E094F09400951095EA0CFB1C7C
:100C30000C1D1D1D8E819F81892B09F042C081E012
:100C400088169104F1F58C810E9409102A853B8554
:100C50004C855D856A8D892B49F421503040404098
:100C600050402A873B874C875D870AC02F5F3F4FE4
:100C70004F4F5F4F2A873B874C875D8781E068270E
:100C80006B8FEA8AFB8A0C8B1D8B2885398544275C
:100C900037FD4095542FC801B7010E947C120E9475
:100CA0005F119B01AC0160EC71EE84E69CE40E9454
:100CB000C6106C8F7D8F8E8F9F8FAE8ABF8AC88E35
:100CC000D98E9F828E828A899B89AC89BD898E1537
:100CD0009F05A007B107E0F40097A105B105C1F099
:100CE00028853985442737FD4095542FC801B70121
:100CF0000E947C120E945F119B01AC0160EC71EEBE
:100D000084E69CE40E94C6106C8F7D8F8E8F9F8F2F
:100D1000DF91CF911F910F91FF90EF90DF90CF90D7
:100D2000BF90AF909F908F900895FC018EE491E06A
:100D300091838083CF010E944A0E0895FC0186E5CD
:100D400091E0918380830895FC0180E090E0A0E031
:100D5000B0E0848B958BA68BB78B168E158E10A268
:100D6000178E0895EF92FF920F931F938C017B01D2
:100D7000FA0186E591E0D80111969C938E931F9617
:100D80003C932E931E97C90162E070E00E949B1273
:100D9000D8011D967C936E931C975196FC93EE930D
:100DA000509781E090E092969C938E939197539602
:100DB000FC92EE9252972E9FC0012F9F900D3E9F66
:100DC000900D11248E9D90018F9D300D9E9D300DB4
:100DD0001124442737FD4095542F60E077E883E9DC
:100DE00093E00E94D012CA01B9010E946111F8017A
:100DF000608F718F828F938F148EC8010E94A4061A
:100E00001F910F91FF90EF9008950F931F938C0106
:100E10009A01AB01FC01248B358B468B578B608D7F
:100E2000718D828D938D0E94C6100E942E11F80143
:100E300070A3678F1F910F910895FC01848D089511
:100E4000FC012489358946895789B901CA01089569
:100E5000FC01648F662319F0828161E002C0828107
:100E600060E00E94B50F0895CF92DF92EF92FF925B
:100E70000F931F936C01862FF60162837383558352
:100E800044833783268311870087F386E28661E0F7
:100E90000E94760FF601848161E00E94760FF601D0
:100EA000868161E00E94760FF601808561E00E94F4
:100EB000760FF601828561E00E94760F1F910F91F7
:100EC000FF90EF90DF90CF9008950F931F938C01C8
:100ED000FC01848161E00E94B50FF801848595854D
:100EE0000E94C90EF801848160E00E94B50FF801EC
:100EF000848595850E94C90E1F910F910895CF9307
:100F0000DF93EC016C897D898E899F8920E030E038
:100F100040E050E00E94C210882381F08D8D9E8DAC
:100F20001816190644F08F8D98A19E8F8D8FCE01D3
:100F30000E94650703C001979E8F8D8FDF91CF912F
:100F40000895FC0186E591E091838083CF010E94A2
:100F50004A0E089508950F931F938C01FC01808120
:100F600091810E947F07F801828193810E94EB05A5
:100F70001F910F910895CF92DF92EF92FF920F93FE
:100F80001F938C01FC01808191810E9420076B01DD
:100F90007C01F801808191810E941D07F8019685EE
:100FA000891721F4F7FAF094F7F8F094B601C70125
:100FB0001F910F91FF90EF90DF90CF900895EF92E7
:100FC000FF920F931F93CF93DF93EC017A018B0174
:100FD000CB01BA0120E030E040E050E00E94C210B6
:100FE000882349F48881998140E050E060E070E016
:100FF0000E94050725C0C801B70120E030E040E0AD
:1010000050E00E9411122881398118165CF4C90140
:10101000B801A7010E9405076E8581E068278881D5
:1010200099810CC017FB109517F91095C901B801EB
:10103000A7010E940507888199816E850E94280773
:10104000DF91CF911F910F91FF90EF900895EF9254
:10105000FF920F931F93FC01E084F18402851385B6
:10106000828193810E94E1050E9461119B01AC0184
:10107000C801B7010E9415121F910F91FF90EF90C8
:101080000895AF92BF92CF92DF92EF92FF920F93AB
:101090007C01CA01F70171836083538342833587E2
:1010A000248720E030E040E050E02483358346830D
:1010B00057830E94D9055B016C01F70182819381FE
:1010C0000E94E705AA2797FDA095BA2FBC01CD0184
:1010D0000E9461119B01AC01C601B5010E94C610BE
:1010E000F701608771878287938706870F91FF904A
:1010F000EF90DF90CF90BF90AF90089508951F922A
:101100000F920FB60F9211242F933F934F938F930B
:101110009F93EF93FF938091C00082FD1DC040918B
:10112000C60020910E0330910F032F5F3F4F2F73A6
:10113000307080911003909111032817390771F0D6
:10114000E0910E03F0910F03E253FD4F4083309383
:101150000F0320930E0302C08091C600FF91EF9110
:101160009F918F914F913F912F910F900FBE0F90B4
:101170001F901895E0916203F0916303E05CFF4FCC
:101180008191919120813181821B930B8F7390709B
:10119000892B11F00E947E0808951F920F920FB6BE
:1011A0000F9211242F933F938F939F93EF93FF936D
:1011B0002091520330915303809154039091550331
:1011C0002817390731F48091C1008F7D8093C100C9
:1011D00014C0E0915403F0915503EE5EFC4F208162
:1011E000809154039091550301968F739070909362
:1011F0005503809354032093C600FF91EF919F9174
:101200008F913F912F910F900FBE0F901F901895C7
:10121000AF92BF92DF92EF92FF920F931F93CF9303
:10122000DF93EC017A018B01DD24403081EE580719
:1012300080E0680780E0780711F0DD24D39491E026
:10124000A92EB12CEC89FD89DD2069F0C50108A02B
:1012500002C0880F991F0A94E2F7808360E079E06A
:101260008DE390E005C0108260E874E88EE190E0C4
:10127000A80197010E94AE122150304040405040DA
:10128000569547953795279580E12030380720F00F
:10129000DD2011F0DD24D6CFE889F9893083EA8991
:1012A000FB89208319A2EE89FF89408121E030E08B
:1012B000C9010C8C02C0880F991F0A94E2F7482BD1
:1012C0004083EE89FF894081C9010D8C02C0880FDF
:1012D000991F0A94E2F7482B4083EE89FF894081E9
:1012E000C9010E8C02C0880F991F0A94E2F7482B9F
:1012F0004083EE89FF8980810F8C02C0220F331F4B
:101300000A94E2F7209528232083DF91CF911F9143
:101310000F91FF90EF90DF90BF90AF900895DC01A8
:101320001C96ED91FC911D97E05CFF4F219131914E
:1013300080819181281B390B2F733070C90108956A
:10134000DC011C96ED91FC911D97E05CFF4F208124
:101350003181E054F040DF01AE5BBF4F8D919C9135
:1013600011972817390719F42FEF3FEF07C08D9118
:101370009C91E80FF91F8081282F30E0C901089562
:10138000DC011C96ED91FC911D97E05CFF4F2081E4
:101390003181E054F040DF01AE5BBF4F8D919C91F5
:1013A00011972817390719F42FEF3FEF10C08D91CF
:1013B0009C911197E80FF91F20818D919C911197B5
:1013C00001968F73907011969C938E9330E0C901B3
:1013D0000895DC0191968C919197882339F0549669
:1013E000ED91FC915597808186FFF9CF91961C92E3
:1013F0000895CF93DF93EC01EE85FF85E05CFF4F0E
:1014000020813181E054F0402F5F3F4F2F733070C7
:10141000DF01AE5BBF4F8D919C9111972817390763
:10142000D1F3E05CFF4F80819181E054F040E80F00
:10143000F91F6083EE85FF85E05CFF4F31832083D9
:10144000EE89FF89208181E090E00F8C02C0880F37
:10145000991F0A94E2F7282B208381E089A3EC8965
:10146000FD8980818064808381E090E0DF91CF916D
:10147000089581E00895109259031092580388EE60
:1014800093E0A0E0B0E080935A0390935B03A093B5
:101490005C03B0935D038EE591E0909357038093D6
:1014A00056038EEC92E0909363038093620382E193
:1014B00093E0909365038093640385EC90E09093B0
:1014C00067038093660384EC90E0909369038093B4
:1014D000680380EC90E090936B0380936A0381EC47
:1014E00090E090936D0380936C0382EC90E0909376
:1014F0006F0380936E0386EC90E09093710380936A
:10150000700384E08093720383E08093730387E029
:101510008093740385E08093750381E08093760364
:101520000895CF92DF92EF92FF920F931F93CF9384
:10153000DF937C016B018A01C0E0D0E00FC0D601CF
:101540006D916D01D701ED91FC910190F081E02D3D
:10155000C7010995C80FD91F015010400115110589
:1015600071F7CE01DF91CF911F910F91FF90EF9016
:10157000DF90CF900895EF92FF920F931F938C010D
:10158000DC01ED91FC910190F081E02D6DE0099579
:101590007C01D801ED91FC910190F081E02DC80112
:1015A0006AE009959C012E0D3F1DC9011F910F9105
:1015B000FF90EF900895CF93DF93EC0161157105D3
:1015C00019F420E030E00FC0DB010D900020E9F7B6
:1015D0001197A61BB70BE881F9810280F381E02DFA
:1015E000AD0109959C01C901DF91CF9108954F92FA
:1015F0005F927F928F929F92AF92BF92CF92DF9233
:10160000EF92FF920F931F93DF93CF93CDB7DEB787
:10161000A1970FB6F894DEBF0FBECDBF2C01742E7C
:10162000CB01223008F42AE019A231E2C32ED12CDA
:10163000CC0EDD1E822E9924AA24BB24672D752F83
:10164000A50194010E94AE1279018A01C801B70177
:10165000A50194010E947C12472D461B0894C108E5
:10166000D1084A3014F4405D01C0495CF601408362
:10167000E114F1040105110521F07E2C5F2DC80154
:10168000DDCFC201B6010E94DB0AA1960FB6F89425
:10169000DEBF0FBECDBFCF91DF911F910F91FF90A5
:1016A000EF90DF90CF90BF90AF909F908F907F9002
:1016B0005F904F900895DC012115310541F4ED91C3
:1016C000FC910190F081E02D642F099508950E940E
:1016D000F70A0895CF92DF92EF92FF920F931F9334
:1016E000CF93DF93EC016A017B012115310541F4B1
:1016F000E881F9810190F081E02D642F09951FC0E8
:101700002A303105D1F477FF17C0E881F9810190C3
:10171000F081E02D6DE209958C0144275527BA012F
:101720004C195D096E097F09CE012AE00E94F70A73
:101730009801280F391F04C02AE00E94F70A9C0173
:10174000C901DF91CF911F910F91FF90EF90DF9032
:10175000CF9008950E94DB0A08957F928F929F9206
:10176000AF92BF92CF92DF92EF92FF920F931F93AF
:10177000CF93DF934C017A018B01722ECB01BA011A
:10178000A80197010E947812882321F0C4016AE21F
:1017900071E021C0C0E0D0E057016801E894D7F8BB
:1017A000C601B5012FEF3FEF4FE75FE70E947812C8
:1017B000882351F4C601B5012FEF3FEF4FE75FE7F4
:1017C0000E94C210181614F0C1E0D0E0219739F041
:1017D000C4016EE271E00E94DB0AEC0193C0C80113
:1017E000B7012FEF3FEF4FE75FE40E941112181689
:1017F00054F0C801B7012FEF3FEF4FE75FEC0E94B5
:10180000C210882324F4C40162E371E0E4CFC8016C
:10181000B70120E030E040E050E00E94C21087FDB8
:1018200003C0C0E0D0E00EC0D401ED91FC91019066
:10183000F081E02DC4016DE20995EC0117FB1095D4
:1018400017F9109520E030E040E05FE3DD240BC0A5
:10185000CA01B90120E030E040E251E40E94C61024
:101860009B01AC01D394D71498F3C801B7010E942F
:101870005E105B016C010E9433117B018C01C4017D
:10188000B801A7012AE030E00E945B0BC80FD91F06
:10189000772039F0C40166E371E00E94DB0AC80FCB
:1018A000D91FC801B7010E945F119B01AC01C6019D
:1018B000B5010E945D1024C020E030E040E251E418
:1018C0000E9415127B018C010E942E115B016C019C
:1018D000CC24B7FCC094DC2CC401B601A5012AE0DD
:1018E00030E00E946A0BC80FD91FC601B5010E94E3
:1018F00061119B01AC01C801B7010E945D107A948F
:101900007720D1F6CE01DF91CF911F910F91FF90FB
:10191000EF90DF90CF90BF90AF909F908F907F908F
:101920000895EF92FF920F931F937C010E94AD0BDD
:101930008C01C7010E94BB0A080F191FC8011F9123
:101940000F91FF90EF900895EF92FF920F931F93E6
:101950007C010E94DB0A8C01C7010E94BB0A080FB0
:10196000191FC8011F910F91FF90EF900895CF9319
:10197000DF93EC010E94950E688779878A879B87A1
:10198000E881F9810084F185E02DCE0109959C0163
:1019900097FF15C00E94950E288539854A855B857D
:1019A000621B730B840B950B2C813D814E815F81F3
:1019B000621773078407950718F32FEF3FEFC901EC
:1019C000DF91CF910895CF93DF93EC01CE010E9478
:1019D000B70C9C0197FD0EC08D32910559F0C09750
:1019E0000A9740F0E881F9810680F781E02DCE0169
:1019F0000995ECCFC901DF91CF9108956F927F9245
:101A00008F929F92AF92BF92CF92DF92EF92FF920E
:101A10000F931F93CF93DF93EC01662E0E94E30C8C
:101A2000D82E87FF05C060E070E080E090E078C0CD
:101A30007724CC24EE24FF2487010F2EF0E08F2E94
:101A4000F0E09F2EF0E8AF2EFFE3BF2EF02DD6146E
:101A5000C1F18DE2D81619F47724739432C09EE256
:101A6000D91619F4CC24C3942CC08D2D80538A3000
:101A700040F5C801B7012AE030E040E050E00E94A4
:101A80007C127B018C018D2D992787FD9095A92FC4
:101A9000B92FE80EF91E0A1F1B1F80ED9FEFAFEF55
:101AA000BFEFE80EF91E0A1F1B1FCC2051F0C50125
:101AB000B4012DEC3CEC4CEC5DE30E9415124B01A3
:101AC0005C01E881F9810680F781E02DCE0109955E
:101AD000CE010E94B70C982FD82E80538A3008F47C
:101AE000B6CF9E3209F4B3CF961509F4B0CF772064
:101AF00041F010950095F094E094E11CF11C011D5B
:101B0000111DCC2049F0C801B7010E946111A50147
:101B100094010E94151204C0C801B7010E9461110E
:101B2000DF91CF911F910F91FF90EF90DF90CF90B9
:101B3000BF90AF909F908F907F906F90089561E0DD
:101B40000E94FE0C0895CF93DF930E94D30E0E9453
:101B50002405CAEBD8E00E94E2042097E1F30E943A
:101B6000BA08F9CFCF93DF939C01009709F48FC097
:101B7000EC0122971B821A8260918103709182038B
:101B80006115710581F488819981820F931F2091DD
:101B90003801309139012817390739F5D0933901C7
:101BA000C093380174C0DB0140E050E0AC17BD07C2
:101BB00008F1BB83AA83FE0121913191E20FF31F4B
:101BC000AE17BF0779F48D919C911197280F391F9B
:101BD0002E5F3F4F3983288312968D919C911397E6
:101BE0009B838A834115510571F4D0938203C0937E
:101BF00081034DC012968D919C911397AD01009772
:101C000011F0DC01D3CFDA011396DC93CE93129757
:101C1000FA0121913191E20FF31FCE17DF0769F42A
:101C200088819981280F391F2E5F3F4FFA01318338
:101C300020838A819B8193838283E0E0F0E0DB0153
:101C400012968D919C911397009719F0BC01FD019C
:101C5000F6CFAB014E5F5F4FDB018D919C91840FFE
:101C6000951F20913801309139012817390779F4EF
:101C7000309729F4109282031092810302C01382DC
:101C80001282425050405093390140933801DF9105
:101C9000CF9108950E94B20D08951F920F920FB632
:101CA0000F9211242F933F938F939F93AF93BF93E2
:101CB00080917C0390917D03A0917E03B0917F037E
:101CC000309180030196A11DB11D232F2D5F2D376B
:101CD00020F02D570196A11DB11D20938003809304
:101CE0007C0390937D03A0937E03B0937F03809148
:101CF000780390917903A0917A03B0917B030196C8
:101D0000A11DB11D8093780390937903A0937A036A
:101D1000B0937B03BF91AF919F918F913F912F9192
:101D20000F900FBE0F901F9018958FB7F8942091C9
:101D30007C0330917D0340917E0350917F038FBFE0
:101D4000B901CA0108959FB7F894209178033091A2
:101D5000790340917A0350917B0386B5A89B06C016
:101D60008F3F21F02F5F3F4F4F4F5F4F9FBF542F4B
:101D7000432F322F2227280F311D411D511D82E094
:101D8000220F331F441F551F8A95D1F7B901CA018D
:101D90000895019739F0880F991F880F991F0297AE
:101DA0000197F1F70895789484B5826084BD84B575
:101DB000816084BD85B5826085BD85B5816085BD46
:101DC000EEE6F0E0808181608083E1E8F0E010825F
:101DD000808182608083808181608083E0E8F0E0A0
:101DE000808181608083E1EBF0E08081846080838A
:101DF000E0EBF0E0808181608083EAE7F0E08081C1
:101E00008460808380818260808380818160808320
:101E10008081806880831092C1000895EF92FF92C4
:101E20000F931F93CF93DF937B018C013FB7F894FF
:101E30008091780390917903A0917A03B0917B030C
:101E400026B5A89B05C02F3F19F00196A11DB11D15
:101E50003FBFBA2FA92F982F8827820F911DA11D50
:101E6000B11D52E0880F991FAA1FBB1F5A95D1F7C9
:101E7000EC0130C00E945C103FB7F8948091780369
:101E800090917903A0917A03B0917B0326B5A89B2A
:101E900005C02F3F19F00196A11DB11D3FBFBA2FFC
:101EA000A92F982F8827820F911DA11DB11D32E007
:101EB000880F991FAA1FBB1F3A95D1F78C1B9D0B4A
:101EC000885E9340B8F20894E108F108010911090D
:101ED000C851DC4FE114F1040105110559F6DF91F9
:101EE000CF911F910F91FF90EF900895CF93DF93C3
:101EF000482F50E0CA0186569F4FFC0134914A5743
:101F00005F4FFA018491882369F190E0880F991F4F
:101F1000FC01E859FF4FA591B491FC01EE58FF4F29
:101F2000C591D491662351F42FB7F8948C91932FD7
:101F3000909589238C93888189230BC0623061F44A
:101F40002FB7F8948C91932F909589238C93888147
:101F5000832B88832FBF06C09FB7F8948C91832B67
:101F60008C939FBFDF91CF910895482F50E0CA0115
:101F700082559F4FFC012491CA0186569F4FFC0158
:101F800094914A575F4FFA013491332309F440C0CA
:101F9000222351F1233071F0243028F42130A1F0B4
:101FA000223011F514C02630B1F02730C1F02430B2
:101FB000D9F404C0809180008F7703C080918000A5
:101FC0008F7D8093800010C084B58F7702C084B568
:101FD0008F7D84BD09C08091B0008F7703C0809150
:101FE000B0008F7D8093B000E32FF0E0EE0FFF1F75
:101FF000EE58FF4FA591B4912FB7F894662321F4C2
:102000008C919095892302C08C91892B8C932FBF42
:102010000895682F70E0CB0182559F4FFC012491F9
:10202000CB0186569F4FFC0144916A577F4FFB01BD
:102030009491992319F420E030E03CC0222351F11F
:10204000233071F0243028F42130A1F0223011F532
:1020500014C02630B1F02730C1F02430D9F404C0C8
:10206000809180008F7703C0809180008F7D809366
:10207000800010C084B58F7702C084B58F7D84BD89
:1020800009C08091B0008F7703C08091B0008F7D30
:102090008093B000892F90E0880F991F84589F4F3C
:1020A000FC01A591B4918C9120E030E0842311F0E3
:1020B00021E030E0C901089508955058BB27AA27B0
:1020C0000ED075C166D130F06BD120F031F49F3F56
:1020D00011F41EF45BC10EF4E095E7FB51C1E92F4A
:1020E00077D180F3BA17620773078407950718F052
:1020F00071F49EF58FC10EF4E0950B2EBA2FA02D32
:102100000B01B90190010C01CA01A0011124FF27A4
:10211000591B99F0593F50F4503E68F11A16F0409F
:10212000A22F232F342F4427585FF3CF469537959E
:102130002795A795F0405395C9F77EF41F16BA0B63
:10214000620B730B840BBAF09150A1F0FF0FBB1F11
:10215000661F771F881FC2F70EC0BA0F621F731F5A
:10216000841F48F4879577956795B795F7959E3FB7
:1021700008F0B3CF9395880F08F09927EE0F979545
:1021800087950895D9D008F481E008950CD00FC147
:1021900007D140F0FED030F021F45F3F19F0F0C0DD
:1021A000511139C1F3C014D198F39923C9F35523C0
:1021B000B1F3951B550BBB27AA276217730784073A
:1021C00038F09F5F5F4F220F331F441FAA1FA9F3F0
:1021D00033D00E2E3AF0E0E830D091505040E695E2
:1021E000001CCAF729D0FE2F27D0660F771F881F43
:1021F000BB1F261737074807AB07B0E809F0BB0B32
:10220000802DBF01FF2793585F4F2AF09E3F510555
:1022100068F0B6C000C15F3FECF3983EDCF38695F2
:1022200077956795B795F7959F5FC9F7880F911DCB
:102230009695879597F90895E1E0660F771F881FB7
:10224000BB1F621773078407BA0720F0621B730B6A
:10225000840BBA0BEE1F88F7E095089504D06894BC
:10226000B111D9C00895BCD088F09F5790F0B92F14
:102270009927B751A0F0D1F0660F771F881F991FDB
:102280001AF0BA95C9F712C0B13081F0C3D0B1E0ED
:102290000895C0C0672F782F8827B85F39F0B93FFD
:1022A000CCF3869577956795B395D9F73EF49095DD
:1022B0008095709561957F4F8F4F9F4F0895E8945B
:1022C00009C097FB3EF490958095709561957F4F7E
:1022D0008F4F9F4F9923A9F0F92F96E9BB2793952C
:1022E000F695879577956795B795F111F8CFFAF43C
:1022F000BB0F11F460FF1BC06F5F7F4F8F4F9F4F6D
:1023000016C0882311F096E911C0772321F09EE8CA
:10231000872F762F05C0662371F096E8862F70E030
:1023200060E02AF09A95660F771F881FDAF7880F0A
:102330009695879597F90895990F0008550FAA0B60
:10234000E0E8FEEF16161706E807F907C0F01216C8
:102350001306E407F50798F0621B730B840B950BCB
:1023600039F40A2661F0232B242B252B21F4089520
:102370000A2609F4A140A6958FEF811D811D0895BD
:1023800097F99F6780E870E060E008959FEF80EC28
:10239000089500240A9416161706180609060895CB
:1023A00000240A9412161306140605060895092E31
:1023B0000394000C11F4882352F0BB0F40F4BF2BA0
:1023C00011F460FF04C06F5F7F4F8F4F9F4F0895E0
:1023D00057FD9058440F551F59F05F3F71F04795D6
:1023E000880F97FB991F61F09F3F79F087950895BB
:1023F000121613061406551FF2CF4695F1DF08C0DA
:10240000161617061806991FF1CF869571056105F6
:1024100008940895E894BB2766277727CB0197F99E
:1024200008958ADF08F48FEF08950BD0C0CFB1DF95
:1024300028F0B6DF18F0952309F0A2CFA7CF11241A
:10244000EACFC6DFA0F3959FD1F3950F50E0551F5B
:10245000629FF001729FBB27F00DB11D639FAA27F9
:10246000F00DB11DAA1F649F6627B00DA11D661F48
:10247000829F2227B00DA11D621F739FB00DA11D69
:10248000621F839FA00D611D221F749F3327A00D23
:10249000611D231F849F600D211D822F762F6A2FBF
:1024A00011249F5750408AF0E1F088234AF0EE0F44
:1024B000FF1FBB1F661F771F881F91505040A9F751
:1024C0009E3F510570F05CCFA6CF5F3FECF3983E86
:1024D000DCF3869577956795B795F795E7959F5FB8
:1024E000C1F7FE2B880F911D9695879597F9089552
:1024F00023DF880B990B0895629FD001739FF00131
:10250000829FE00DF11D649FE00DF11D929FF00D83
:10251000839FF00D749FF00D659FF00D9927729FBA
:10252000B00DE11DF91F639FB00DE11DF91FBD0145
:10253000CF011124089597FB092E07260AD077FDB5
:1025400004D049D006D000201AF4709561957F4FD1
:102550000895F6F7909581959F4F0895A1E21A2E60
:10256000AA1BBB1BFD010DC0AA1FBB1FEE1FFF1F37
:10257000A217B307E407F50720F0A21BB30BE40B87
:10258000F50B661F771F881F991F1A9469F76095CE
:102590007095809590959B01AC01BD01CF01089588
:1025A00097FB092E05260ED057FD04D0D7DF0AD0A1
:1025B000001C38F450954095309521953F4F4F4F72
:1025C0005F4F0895F6F790958095709561957F4FD0
:1025D0008F4F9F4F0895AA1BBB1B51E107C0AA1F35
:1025E000BB1FA617B70710F0A61BB70B881F991FB4
:1025F0005A95A9F780959095BC01CD010895EE0FED
:10260000FF1F0590F491E02D099410E0C8ECD0E094
:1026100004C0FE010E9401132296CA3CD107C9F7EB
:04262000F894FFCF5C
:1026240056656C6F63696461643A004469737461EC
:102634006E6369613A006573746F7920696E6963CA
:1026440069616C697A616E646F006E616E00696EB7
:1026540066006F7666002E00830300000000B3025C
:1026640082023B02440259026A0200000000D305C0
:102674009506000000009E06A10700000000F9096D
:0A268400910A8F09C009A009E909B5
:00000001FF
